{
  "contractName": "AIModelMarketplace",
  "abi": [
    {
      "inputs": [],
      "name": "modelCount",
      "outputs": [
        {
          "internalType": "uint256",
          "name": "",
          "type": "uint256"
        }
      ],
      "stateMutability": "view",
      "type": "function",
      "constant": true
    },
    {
      "inputs": [
        {
          "internalType": "uint256",
          "name": "",
          "type": "uint256"
        }
      ],
      "name": "models",
      "outputs": [
        {
          "internalType": "uint256",
          "name": "id",
          "type": "uint256"
        },
        {
          "internalType": "string",
          "name": "name",
          "type": "string"
        },
        {
          "internalType": "string",
          "name": "description",
          "type": "string"
        },
        {
          "internalType": "uint256",
          "name": "price",
          "type": "uint256"
        },
        {
          "internalType": "address payable",
          "name": "creator",
          "type": "address"
        },
        {
          "internalType": "uint8",
          "name": "ratingSum",
          "type": "uint8"
        },
        {
          "internalType": "uint8",
          "name": "ratingCount",
          "type": "uint8"
        }
      ],
      "stateMutability": "view",
      "type": "function",
      "constant": true
    },
    {
      "inputs": [
        {
          "internalType": "address",
          "name": "",
          "type": "address"
        }
      ],
      "name": "pendingWithdrawals",
      "outputs": [
        {
          "internalType": "uint256",
          "name": "",
          "type": "uint256"
        }
      ],
      "stateMutability": "view",
      "type": "function",
      "constant": true
    },
    {
      "inputs": [
        {
          "internalType": "address",
          "name": "",
          "type": "address"
        },
        {
          "internalType": "uint256",
          "name": "",
          "type": "uint256"
        }
      ],
      "name": "purchases",
      "outputs": [
        {
          "internalType": "bool",
          "name": "",
          "type": "bool"
        }
      ],
      "stateMutability": "view",
      "type": "function",
      "constant": true
    },
    {
      "inputs": [
        {
          "internalType": "string",
          "name": "name",
          "type": "string"
        },
        {
          "internalType": "string",
          "name": "description",
          "type": "string"
        },
        {
          "internalType": "uint256",
          "name": "price",
          "type": "uint256"
        }
      ],
      "name": "listModel",
      "outputs": [],
      "stateMutability": "nonpayable",
      "type": "function"
    },
    {
      "inputs": [
        {
          "internalType": "uint256",
          "name": "modelId",
          "type": "uint256"
        }
      ],
      "name": "purchaseModel",
      "outputs": [],
      "stateMutability": "payable",
      "type": "function",
      "payable": true
    },
    {
      "inputs": [
        {
          "internalType": "uint256",
          "name": "modelId",
          "type": "uint256"
        },
        {
          "internalType": "uint8",
          "name": "rating",
          "type": "uint8"
        }
      ],
      "name": "rateModel",
      "outputs": [],
      "stateMutability": "nonpayable",
      "type": "function"
    },
    {
      "inputs": [],
      "name": "withdrawFunds",
      "outputs": [],
      "stateMutability": "nonpayable",
      "type": "function"
    },
    {
      "inputs": [
        {
          "internalType": "uint256",
          "name": "modelId",
          "type": "uint256"
        }
      ],
      "name": "getModelDetails",
      "outputs": [
        {
          "internalType": "uint256",
          "name": "id",
          "type": "uint256"
        },
        {
          "internalType": "string",
          "name": "name",
          "type": "string"
        },
        {
          "internalType": "string",
          "name": "description",
          "type": "string"
        },
        {
          "internalType": "uint256",
          "name": "price",
          "type": "uint256"
        },
        {
          "internalType": "address",
          "name": "creator",
          "type": "address"
        },
        {
          "internalType": "uint8",
          "name": "averageRating",
          "type": "uint8"
        }
      ],
      "stateMutability": "view",
      "type": "function",
      "constant": true
    }
  ],
  "bytecode": "0x608060405234801561001057600080fd5b50611701806100206000396000f3fe6080604052600436106100865760003560e01c806352d3f8491161005957806352d3f849146101365780636a030ca914610173578063c6a645fe146101b6578063dc746862146101e1578063f3f43703146101fd57610086565b806312ee1c0e1461008b5780631c788a9a146100b457806324600fc3146100dd57806331fc042f146100f4575b600080fd5b34801561009757600080fd5b506100b260048036038101906100ad9190610e40565b61023a565b005b3480156100c057600080fd5b506100db60048036038101906100d69190610ee8565b6103db565b005b3480156100e957600080fd5b506100f261055c565b005b34801561010057600080fd5b5061011b60048036038101906101169190610ebf565b610672565b60405161012d969594939291906112c1565b60405180910390f35b34801561014257600080fd5b5061015d60048036038101906101589190610e04565b6108e1565b60405161016a919061114e565b60405180910390f35b34801561017f57600080fd5b5061019a60048036038101906101959190610ebf565b610910565b6040516101ad9796959493929190611244565b60405180910390f35b3480156101c257600080fd5b506101cb610a9c565b6040516101d89190611229565b60405180910390f35b6101fb60048036038101906101f69190610ebf565b610aa2565b005b34801561020957600080fd5b50610224600480360381019061021f9190610ddb565b610c79565b6040516102319190611229565b60405180910390f35b6000811161027d576040517f08c379a000000000000000000000000000000000000000000000000000000000815260040161027490611169565b60405180910390fd5b6001600081548092919061029090611546565b91905055506040518060e0016040528060015481526020018481526020018381526020018281526020013373ffffffffffffffffffffffffffffffffffffffff168152602001600060ff168152602001600060ff168152506000806001548152602001908152602001600020600082015181600001556020820151816001019080519060200190610322929190610c91565b50604082015181600201908051906020019061033f929190610c91565b506060820151816003015560808201518160040160006101000a81548173ffffffffffffffffffffffffffffffffffffffff021916908373ffffffffffffffffffffffffffffffffffffffff16021790555060a08201518160040160146101000a81548160ff021916908360ff16021790555060c08201518160040160156101000a81548160ff021916908360ff160217905550905050505050565b600260003373ffffffffffffffffffffffffffffffffffffffff1673ffffffffffffffffffffffffffffffffffffffff168152602001908152602001600020600083815260200190815260200160002060009054906101000a900460ff16610478576040517f08c379a000000000000000000000000000000000000000000000000000000000815260040161046f90611209565b60405180910390fd5b60018160ff1610158015610490575060058160ff1611155b6104cf576040517f08c379a00000000000000000000000000000000000000000000000000000000081526004016104c6906111e9565b60405180910390fd5b60008060008481526020019081526020016000209050818160040160148282829054906101000a900460ff166105059190611403565b92506101000a81548160ff021916908360ff16021790555080600401601581819054906101000a900460ff168092919061053e9061158f565b91906101000a81548160ff021916908360ff16021790555050505050565b6000600360003373ffffffffffffffffffffffffffffffffffffffff1673ffffffffffffffffffffffffffffffffffffffff168152602001908152602001600020549050600081116105e3576040517f08c379a00000000000000000000000000000000000000000000000000000000081526004016105da90611189565b60405180910390fd5b6000600360003373ffffffffffffffffffffffffffffffffffffffff1673ffffffffffffffffffffffffffffffffffffffff168152602001908152602001600020819055503373ffffffffffffffffffffffffffffffffffffffff166108fc829081150290604051600060405180830381858888f1935050505015801561066e573d6000803e3d6000fd5b5050565b60006060806000806000806000808981526020019081526020016000209050600073ffffffffffffffffffffffffffffffffffffffff168160040160009054906101000a900473ffffffffffffffffffffffffffffffffffffffff1673ffffffffffffffffffffffffffffffffffffffff161415610725576040517f08c379a000000000000000000000000000000000000000000000000000000000815260040161071c906111c9565b60405180910390fd5b6000808260040160159054906101000a900460ff1660ff1611610749576000610778565b8160040160159054906101000a900460ff168260040160149054906101000a900460ff16610777919061143a565b5b90508160000154826001018360020184600301548560040160009054906101000a900473ffffffffffffffffffffffffffffffffffffffff16858480546107be90611514565b80601f01602080910402602001604051908101604052809291908181526020018280546107ea90611514565b80156108375780601f1061080c57610100808354040283529160200191610837565b820191906000526020600020905b81548152906001019060200180831161081a57829003601f168201915b5050505050945083805461084a90611514565b80601f016020809104026020016040519081016040528092919081815260200182805461087690611514565b80156108c35780601f10610898576101008083540402835291602001916108c3565b820191906000526020600020905b8154815290600101906020018083116108a657829003601f168201915b50505050509350975097509750975097509750505091939550919395565b60026020528160005260406000206020528060005260406000206000915091509054906101000a900460ff1681565b600060205280600052604060002060009150905080600001549080600101805461093990611514565b80601f016020809104026020016040519081016040528092919081815260200182805461096590611514565b80156109b25780601f10610987576101008083540402835291602001916109b2565b820191906000526020600020905b81548152906001019060200180831161099557829003601f168201915b5050505050908060020180546109c790611514565b80601f01602080910402602001604051908101604052809291908181526020018280546109f390611514565b8015610a405780601f10610a1557610100808354040283529160200191610a40565b820191906000526020600020905b815481529060010190602001808311610a2357829003601f168201915b5050505050908060030154908060040160009054906101000a900473ffffffffffffffffffffffffffffffffffffffff16908060040160149054906101000a900460ff16908060040160159054906101000a900460ff16905087565b60015481565b6000806000838152602001908152602001600020905080600301543414610afe576040517f08c379a0000000000000000000000000000000000000000000000000000000008152600401610af5906111a9565b60405180910390fd5b600073ffffffffffffffffffffffffffffffffffffffff168160040160009054906101000a900473ffffffffffffffffffffffffffffffffffffffff1673ffffffffffffffffffffffffffffffffffffffff161415610b92576040517f08c379a0000000000000000000000000000000000000000000000000000000008152600401610b89906111c9565b60405180910390fd5b6001600260003373ffffffffffffffffffffffffffffffffffffffff1673ffffffffffffffffffffffffffffffffffffffff168152602001908152602001600020600084815260200190815260200160002060006101000a81548160ff02191690831515021790555034600360008360040160009054906101000a900473ffffffffffffffffffffffffffffffffffffffff1673ffffffffffffffffffffffffffffffffffffffff1673ffffffffffffffffffffffffffffffffffffffff1681526020019081526020016000206000828254610c6e91906113ad565b925050819055505050565b60036020528060005260406000206000915090505481565b828054610c9d90611514565b90600052602060002090601f016020900481019282610cbf5760008555610d06565b82601f10610cd857805160ff1916838001178555610d06565b82800160010185558215610d06579182015b82811115610d05578251825591602001919060010190610cea565b5b509050610d139190610d17565b5090565b5b80821115610d30576000816000905550600101610d18565b5090565b6000610d47610d4284611361565b611330565b905082815260208101848484011115610d5f57600080fd5b610d6a8482856114d2565b509392505050565b600081359050610d8181611686565b92915050565b600082601f830112610d9857600080fd5b8135610da8848260208601610d34565b91505092915050565b600081359050610dc08161169d565b92915050565b600081359050610dd5816116b4565b92915050565b600060208284031215610ded57600080fd5b6000610dfb84828501610d72565b91505092915050565b60008060408385031215610e1757600080fd5b6000610e2585828601610d72565b9250506020610e3685828601610db1565b9150509250929050565b600080600060608486031215610e5557600080fd5b600084013567ffffffffffffffff811115610e6f57600080fd5b610e7b86828701610d87565b935050602084013567ffffffffffffffff811115610e9857600080fd5b610ea486828701610d87565b9250506040610eb586828701610db1565b9150509250925092565b600060208284031215610ed157600080fd5b6000610edf84828501610db1565b91505092915050565b60008060408385031215610efb57600080fd5b6000610f0985828601610db1565b9250506020610f1a85828601610dc6565b9150509250929050565b610f2d8161147d565b82525050565b610f3c8161146b565b82525050565b610f4b8161148f565b82525050565b6000610f5c82611391565b610f66818561139c565b9350610f768185602086016114e1565b610f7f81611675565b840191505092915050565b6000610f97601f8361139c565b91507f5072696365206d7573742062652067726561746572207468616e207a65726f006000830152602082019050919050565b6000610fd760148361139c565b91507f4e6f2066756e647320746f2077697468647261770000000000000000000000006000830152602082019050919050565b600061101760148361139c565b91507f496e636f72726563742076616c75652073656e740000000000000000000000006000830152602082019050919050565b600061105760148361139c565b91507f4d6f64656c20646f6573206e6f742065786973740000000000000000000000006000830152602082019050919050565b6000611097601e8361139c565b91507f526174696e67206d757374206265206265747765656e203120616e64203500006000830152602082019050919050565b60006110d760218361139c565b91507f596f752068617665206e6f74207075726368617365642074686973206d6f646560008301527f6c000000000000000000000000000000000000000000000000000000000000006020830152604082019050919050565b611139816114bb565b82525050565b611148816114c5565b82525050565b60006020820190506111636000830184610f42565b92915050565b6000602082019050818103600083015261118281610f8a565b9050919050565b600060208201905081810360008301526111a281610fca565b9050919050565b600060208201905081810360008301526111c28161100a565b9050919050565b600060208201905081810360008301526111e28161104a565b9050919050565b600060208201905081810360008301526112028161108a565b9050919050565b60006020820190508181036000830152611222816110ca565b9050919050565b600060208201905061123e6000830184611130565b92915050565b600060e082019050611259600083018a611130565b818103602083015261126b8189610f51565b9050818103604083015261127f8188610f51565b905061128e6060830187611130565b61129b6080830186610f24565b6112a860a083018561113f565b6112b560c083018461113f565b98975050505050505050565b600060c0820190506112d66000830189611130565b81810360208301526112e88188610f51565b905081810360408301526112fc8187610f51565b905061130b6060830186611130565b6113186080830185610f33565b61132560a083018461113f565b979650505050505050565b6000604051905081810181811067ffffffffffffffff8211171561135757611356611646565b5b8060405250919050565b600067ffffffffffffffff82111561137c5761137b611646565b5b601f19601f8301169050602081019050919050565b600081519050919050565b600082825260208201905092915050565b60006113b8826114bb565b91506113c3836114bb565b9250827fffffffffffffffffffffffffffffffffffffffffffffffffffffffffffffffff038211156113f8576113f76115b9565b5b828201905092915050565b600061140e826114c5565b9150611419836114c5565b92508260ff0382111561142f5761142e6115b9565b5b828201905092915050565b6000611445826114c5565b9150611450836114c5565b9250826114605761145f6115e8565b5b828204905092915050565b60006114768261149b565b9050919050565b60006114888261149b565b9050919050565b60008115159050919050565b600073ffffffffffffffffffffffffffffffffffffffff82169050919050565b6000819050919050565b600060ff82169050919050565b82818337600083830152505050565b60005b838110156114ff5780820151818401526020810190506114e4565b8381111561150e576000848401525b50505050565b6000600282049050600182168061152c57607f821691505b602082108114156115405761153f611617565b5b50919050565b6000611551826114bb565b91507fffffffffffffffffffffffffffffffffffffffffffffffffffffffffffffffff821415611584576115836115b9565b5b600182019050919050565b600061159a826114c5565b915060ff8214156115ae576115ad6115b9565b5b600182019050919050565b7f4e487b7100000000000000000000000000000000000000000000000000000000600052601160045260246000fd5b7f4e487b7100000000000000000000000000000000000000000000000000000000600052601260045260246000fd5b7f4e487b7100000000000000000000000000000000000000000000000000000000600052602260045260246000fd5b7f4e487b7100000000000000000000000000000000000000000000000000000000600052604160045260246000fd5b6000601f19601f8301169050919050565b61168f8161146b565b811461169a57600080fd5b50565b6116a6816114bb565b81146116b157600080fd5b50565b6116bd816114c5565b81146116c857600080fd5b5056fea264697066735822122006e1c5823c76cafac417d1c31f04998a891560cfdf6b17d83a699a3e6831eee264736f6c63430008000033",
  "immutableReferences": {},
  "source": "// SPDX-License-Identifier: MIT\r\npragma solidity ^0.8.0;\r\n\r\ncontract AIModelMarketplace {\r\n  struct Model {\r\n    uint256 id;\r\n    string name;\r\n    string description;\r\n    uint256 price;\r\n    address payable creator;\r\n    uint8 ratingSum;\r\n    uint8 ratingCount;\r\n  }\r\n\r\nmapping(uint256 => Model) public models;\r\nuint256 public modelCount;\r\n\r\nmapping(address => mapping(uint256 => bool)) public purchases;\r\n\r\nmapping(address => uint256) public pendingWithdrawals;\r\n\r\nfunction listModel(string memory name, string memory description, uint256 price) public {\r\n    require(price > 0, \"Price must be greater than zero\");\r\n    modelCount++;\r\n    models[modelCount] = Model(\r\n        modelCount,\r\n        name,\r\n        description,\r\n        price,\r\n        payable(msg.sender),\r\n        0,\r\n        0\r\n    );\r\n}\r\n\r\nfunction purchaseModel(uint256 modelId) public payable {\r\n    Model storage model = models[modelId];\r\n    require(msg.value == model.price, \"Incorrect value sent\");\r\n    require(model.creator != address(0), \"Model does not exist\");\r\n\r\n    purchases[msg.sender][modelId] = true;\r\n    pendingWithdrawals[model.creator] += msg.value;\r\n}\r\n\r\nfunction rateModel(uint256 modelId, uint8 rating) public {\r\n    require(purchases[msg.sender][modelId], \"You have not purchased this model\");\r\n    require(rating >= 1 && rating <= 5, \"Rating must be between 1 and 5\");\r\n    Model storage model = models[modelId];\r\n    model.ratingSum += rating;\r\n    model.ratingCount++;\r\n}\r\n\r\nfunction withdrawFunds() public {\r\n    uint256 amount = pendingWithdrawals[msg.sender];\r\n    require(amount > 0, \"No funds to withdraw\");\r\n\r\n    // Reset the pending balance before transferring to prevent re-entrancy attacks\r\n    pendingWithdrawals[msg.sender] = 0;\r\n\r\n    payable(msg.sender).transfer(amount);\r\n}\r\n\r\nfunction getModelDetails(uint256 modelId) public view returns (\r\n    uint256 id,\r\n    string memory name,\r\n    string memory description,\r\n    uint256 price,\r\n    address creator,\r\n    uint8 averageRating\r\n) {\r\n    Model storage model = models[modelId];\r\n    require(model.creator != address(0), \"Model does not exist\");\r\n    uint8 avgRating = model.ratingCount > 0 ? model.ratingSum / model.ratingCount : 0;\r\n    return (\r\n        model.id,\r\n        model.name,\r\n        model.description,\r\n        model.price,\r\n        model.creator,\r\n        avgRating\r\n    );\r\n}\r\n}",
  "sourcePath": "C:\\Users\\Acer\\Desktop\\blockchain2\\contracts\\AIModelMarket.sol",
  "compiler": {
    "name": "solc",
    "version": "0.8.0+commit.c7dfd78e.Emscripten.clang"
  },
  "schemaVersion": "3.4.16",
  "updatedAt": "2024-10-01T21:50:13.550Z",
  "networkType": "ethereum",
  "devdoc": {
    "kind": "dev",
    "methods": {},
    "version": 1
  },
  "userdoc": {
    "kind": "user",
    "methods": {},
    "version": 1
  }
}