{
  "contractName": "AIModelMarketplace",
  "abi": [
    {
      "anonymous": false,
      "inputs": [
        {
          "indexed": false,
          "internalType": "uint256",
          "name": "modelId",
          "type": "uint256"
        },
        {
          "indexed": false,
          "internalType": "string",
          "name": "name",
          "type": "string"
        },
        {
          "indexed": false,
          "internalType": "uint256",
          "name": "price",
          "type": "uint256"
        }
      ],
      "name": "ModelListed",
      "type": "event"
    },
    {
      "inputs": [],
      "name": "modelCount",
      "outputs": [
        {
          "internalType": "uint256",
          "name": "",
          "type": "uint256"
        }
      ],
      "stateMutability": "view",
      "type": "function"
    },
    {
      "inputs": [
        {
          "internalType": "uint256",
          "name": "",
          "type": "uint256"
        }
      ],
      "name": "models",
      "outputs": [
        {
          "internalType": "uint256",
          "name": "id",
          "type": "uint256"
        },
        {
          "internalType": "string",
          "name": "name",
          "type": "string"
        },
        {
          "internalType": "string",
          "name": "description",
          "type": "string"
        },
        {
          "internalType": "uint256",
          "name": "price",
          "type": "uint256"
        },
        {
          "internalType": "address payable",
          "name": "creator",
          "type": "address"
        },
        {
          "internalType": "uint8",
          "name": "ratingSum",
          "type": "uint8"
        },
        {
          "internalType": "uint8",
          "name": "ratingCount",
          "type": "uint8"
        }
      ],
      "stateMutability": "view",
      "type": "function"
    },
    {
      "inputs": [
        {
          "internalType": "string",
          "name": "name",
          "type": "string"
        },
        {
          "internalType": "string",
          "name": "description",
          "type": "string"
        },
        {
          "internalType": "uint256",
          "name": "price",
          "type": "uint256"
        }
      ],
      "name": "listModel",
      "outputs": [],
      "stateMutability": "nonpayable",
      "type": "function"
    }
  ],
  "bytecode": "0x608060405234801561001057600080fd5b506109f8806100206000396000f3fe608060405234801561001057600080fd5b50600436106100415760003560e01c806312ee1c0e146100465780636a030ca914610062578063c6a645fe14610098575b600080fd5b610060600480360381019061005b9190610546565b6100b6565b005b61007c600480360381019061007791906105c5565b610294565b60405161008f97969594939291906106cf565b60405180910390f35b6100a0610420565b6040516100ad91906106b4565b60405180910390f35b600081116100f9576040517f08c379a00000000000000000000000000000000000000000000000000000000081526004016100f090610694565b60405180910390fd5b6001600081548092919061010c906108c4565b91905055506040518060e0016040528060015481526020018481526020018381526020018281526020013373ffffffffffffffffffffffffffffffffffffffff168152602001600060ff168152602001600060ff16815250600080600154815260200190815260200160002060008201518160000155602082015181600101908051906020019061019e929190610426565b5060408201518160020190805190602001906101bb929190610426565b506060820151816003015560808201518160040160006101000a81548173ffffffffffffffffffffffffffffffffffffffff021916908373ffffffffffffffffffffffffffffffffffffffff16021790555060a08201518160040160146101000a81548160ff021916908360ff16021790555060c08201518160040160156101000a81548160ff021916908360ff1602179055509050507f8d62deb55080077d14c559532a75d87e5d6b8c9b3eef2f945f0f60b960aab87660015484836040516102879392919061074c565b60405180910390a1505050565b60006020528060005260406000206000915090508060000154908060010180546102bd90610892565b80601f01602080910402602001604051908101604052809291908181526020018280546102e990610892565b80156103365780601f1061030b57610100808354040283529160200191610336565b820191906000526020600020905b81548152906001019060200180831161031957829003601f168201915b50505050509080600201805461034b90610892565b80601f016020809104026020016040519081016040528092919081815260200182805461037790610892565b80156103c45780601f10610399576101008083540402835291602001916103c4565b820191906000526020600020905b8154815290600101906020018083116103a757829003601f168201915b5050505050908060030154908060040160009054906101000a900473ffffffffffffffffffffffffffffffffffffffff16908060040160149054906101000a900460ff16908060040160159054906101000a900460ff16905087565b60015481565b82805461043290610892565b90600052602060002090601f016020900481019282610454576000855561049b565b82601f1061046d57805160ff191683800117855561049b565b8280016001018555821561049b579182015b8281111561049a57825182559160200191906001019061047f565b5b5090506104a891906104ac565b5090565b5b808211156104c55760008160009055506001016104ad565b5090565b60006104dc6104d7846107bb565b61078a565b9050828152602081018484840111156104f457600080fd5b6104ff848285610850565b509392505050565b600082601f83011261051857600080fd5b81356105288482602086016104c9565b91505092915050565b600081359050610540816109ab565b92915050565b60008060006060848603121561055b57600080fd5b600084013567ffffffffffffffff81111561057557600080fd5b61058186828701610507565b935050602084013567ffffffffffffffff81111561059e57600080fd5b6105aa86828701610507565b92505060406105bb86828701610531565b9150509250925092565b6000602082840312156105d757600080fd5b60006105e584828501610531565b91505092915050565b6105f781610807565b82525050565b6000610608826107eb565b61061281856107f6565b935061062281856020860161085f565b61062b8161099a565b840191505092915050565b6000610643601f836107f6565b91507f5072696365206d7573742062652067726561746572207468616e207a65726f006000830152602082019050919050565b61067f81610839565b82525050565b61068e81610843565b82525050565b600060208201905081810360008301526106ad81610636565b9050919050565b60006020820190506106c96000830184610676565b92915050565b600060e0820190506106e4600083018a610676565b81810360208301526106f681896105fd565b9050818103604083015261070a81886105fd565b90506107196060830187610676565b61072660808301866105ee565b61073360a0830185610685565b61074060c0830184610685565b98975050505050505050565b60006060820190506107616000830186610676565b818103602083015261077381856105fd565b90506107826040830184610676565b949350505050565b6000604051905081810181811067ffffffffffffffff821117156107b1576107b061096b565b5b8060405250919050565b600067ffffffffffffffff8211156107d6576107d561096b565b5b601f19601f8301169050602081019050919050565b600081519050919050565b600082825260208201905092915050565b600061081282610819565b9050919050565b600073ffffffffffffffffffffffffffffffffffffffff82169050919050565b6000819050919050565b600060ff82169050919050565b82818337600083830152505050565b60005b8381101561087d578082015181840152602081019050610862565b8381111561088c576000848401525b50505050565b600060028204905060018216806108aa57607f821691505b602082108114156108be576108bd61093c565b5b50919050565b60006108cf82610839565b91507fffffffffffffffffffffffffffffffffffffffffffffffffffffffffffffffff8214156109025761090161090d565b5b600182019050919050565b7f4e487b7100000000000000000000000000000000000000000000000000000000600052601160045260246000fd5b7f4e487b7100000000000000000000000000000000000000000000000000000000600052602260045260246000fd5b7f4e487b7100000000000000000000000000000000000000000000000000000000600052604160045260246000fd5b6000601f19601f8301169050919050565b6109b481610839565b81146109bf57600080fd5b5056fea2646970667358221220a2410e0d9c46639c13a5f3f27bbc29280e3a0e28fc0d792975bce9037eaba43c64736f6c63430008000033",
  "immutableReferences": {},
  "source": "// SPDX-License-Identifier: MIT\r\npragma solidity ^0.8.0;\r\n\r\ncontract AIModelMarketplace {\r\n    // Event to emit when a model is listed\r\n    event ModelListed(uint256 modelId, string name, uint256 price);\r\n\r\n    struct Model {\r\n        uint256 id;\r\n        string name;\r\n        string description;\r\n        uint256 price;\r\n        address payable creator;\r\n        uint8 ratingSum;\r\n        uint8 ratingCount;\r\n    }\r\n\r\n    mapping(uint256 => Model) public models;\r\n    uint256 public modelCount;\r\n\r\n    function listModel(string memory name, string memory description, uint256 price) public {\r\n        require(price > 0, \"Price must be greater than zero\");\r\n\r\n        modelCount++;\r\n        models[modelCount] = Model(\r\n            modelCount,\r\n            name,\r\n            description,\r\n            price,\r\n            payable(msg.sender),\r\n            0, \r\n            0\r\n        );\r\n\r\n        // Emit event when the model is listed\r\n        emit ModelListed(modelCount, name, price);\r\n    }\r\n\r\n    // Other functions like purchaseModel, rateModel, etc.\r\n}",
  "sourcePath": "C:\\Users\\Acer\\Desktop\\blockchain2\\contracts\\AIModelMarket.sol",
  "compiler": {
    "name": "solc",
    "version": "0.8.0+commit.c7dfd78e.Emscripten.clang"
  },
  "schemaVersion": "3.4.16",
  "updatedAt": "2024-10-02T02:29:14.802Z",
  "devdoc": {
    "kind": "dev",
    "methods": {},
    "version": 1
  },
  "userdoc": {
    "kind": "user",
    "methods": {},
    "version": 1
  }
}